S01200004453313330355F5254432E737265636A
S11300000C942A000C9447000C9447000C9447006D
S11300100C9447000C9447000C9447000C94470040
S11300200C9447000C9447000C9447000C94470030
S11300300C9447000C9447000C9447000C94470020
S11300400C9447000C9447000C9447000C94470010
S11300500C94470011241FBECFE5D8E0DEBFCDBF0E
S113006010E0A0E6B0E0E2E4F7E002C005900D92F3
S1130070A639B107D9F720E0A6E9B0E001C01D9286
S1130080A639B207E1F70E941E020C949F030C9458
S11300900000EF92FF920F931F93CF93DF9300D052
S11300A01F92CDB7DEB77C0181E08A831B8200E01A
S11300B010E012C0F801EE0FFF1FE00FF11FEE0D6C
S11300C0FF1D82818983BE016F5F7F4F8081918193
S11300D00E9442010F5F1F4F063011055CF300E0E0
S11300E010E012C0F801EE0FFF1FE00FF11FEE0D3C
S11300F0FF1D84898983BE016F5F7F4F8289938945
S11301000E9442010F5F1F4F043011055CF30F90F2
S11301100F900F90DF91CF911F910F91FF90EF906F
S11301200895DF92EF92FF920F931F93CF93DF9383
S1130130062FEA019DEC899FD12C1124D694D694E4
S1130140D694DD0C9D2D990F990FD90E982F9D19DA
S1130150D92E8823B9F09DEC899F812D1124869591
S11301608695869589F01DEC819F112D1124169595
S113017016951695110F912F990F990F190F811B31
S1130180182F03C010E001C010E0E12CF12C18C0BE
S1130190412F50E00E2C02C0559547950A94E2F782
S11301A04170F701EE0FFF1FEE0DFF1DEC0FFD1F59
S11301B06489828993890E946301EFEFEE1AFE0A33
S11301C0F4E0EF16F10424F310E07801EE0CFF1CC8
S11301D0E00EF11EEC0EFD1E41E0F701628180810C
S11301E091810E9463018FE39FE10197F1F700C0C1
S11301F0000040E0F7016281808191810E946301E7
S1130200E12CF12C18C04D2D50E00E2C02C0559558
S113021047950A94E2F74170F701EE0FFF1FEE0DC8
S1130220FF1DEC0FFD1F6489828993890E9463017D
S1130230FFEFEF1AFF0A84E0E816F10424F30F5FDE
S11302401F4FC801880F991F080F191FC00FD11F16
S113025041E06A81888199810E946301EFE3FCE9AE
S11302603197F1F700C0000040E06A8188819981EC
S11302700E946301DF91CF911F910F91FF90EF9046
S1130280DF900895DC01FB018181813099F4808144
S113029011969C911197892B11968C9311978281B9
S11302A0813081F4808112969C911297892B129649
S11302B08C9308959081909511968C911197982321
S11302C011969C930895442329F0FC012281622B0A
S11302D0628308956095FC012281622362830895FC
S11302E08F929F92AF92BF92CF92DF92EF92FF9242
S11302F00F93CF93DF93EC01288139814A815B818D
S113030060E074E284EF90E00E94530349015A01D3
S1130310392D4A2D5B2D60E070E080E090E0A0EF85
S11303200E94930301E00E94770320B98C8182B973
S113033016BE11B88D81813029F4789486B7816016
S113034086BF03C086B78E7F86BFDF91CF910F91A2
S1130350FF90EF90DF90CF90BF90AF909F908F90E1
S113036008950F93FC0137832683008784EA86BFB0
S113037006B607FEFDCF63B984E886BF06B607FE5E
S1130380FDCF43B984E886BF06B607FEFDCF0DC096
S1130390A681B781CD010196978386838C9183B919
S11303A084E886BF06B607FEFDCF80859FEF980FD1
S11303B090878111EDCF84E986BF0F9108950F9343
S11303C0FC0137832683008784EA86BF06B607FECE
S11303D0FDCF63B984E886BF06B607FEFDCF43B9F7
S11303E084E886BF06B607FEFDCF84EA86BF06B65C
S11303F007FEFDCF616063B984E886BF06B607FED9
S1130400FDCF0DC084EC86BF06B607FEFDCFA681E6
S1130410B781CD0101969783868383B18C938085C0
S11304209FEF980F90878111EDCF84E886BF06B6C1
S113043007FEFDCF84E986BF0F9108950E9445020F
S113044080E690E00E94490088E890E00E94CE0295
S11304508EE790E00E94160383E890E00E94570222
S1130460C3E8D0E040E650E060E08A810E94910059
S113047040E650E062E089810E94910040E650E04D
S113048064E088810E949100E7CF8DE890E00E94AB
S113049070010895382F3F70982F92959F70990F8F
S11304A0292F220F220F892F820F830F0895EF9295
S11304B0FF920F931F93CF93DF9300D000D01F922E
S11304C0CDB7DEB77C0103E09E012F5F3F4F40E0D4
S11304D060ED8DE890E00E94DF018B81982F90748D
S11304E086FD05C0F70182818F7782830BC091114D
S11304F004C091E0F701948303C092E0F701948370
S11305008F718B838A81082F0F778981182F1F772A
S1130510F7018381823081F48B810E944A02F701C2
S11305208283802F0E944A02F7018183812F0E94D7
S11305304A02F701808305C08B81F701828301831E
S113054010830F900F900F900F900F90DF91CF9129
S11305501F910F91FF90EF9008958436D8F488236B
S1130560D9F09DEC899F912D1124492F46954695EC
S11305704695440F242F220F220F420F841B482F2D
S113058096959695969580E1989F90011124842FD5
S1130590822B089589E9089580E008950F931F93AD
S11305A0CF93DF9300D000D01F92CDB7DEB78C017C
S11305B0FC018381823079F482810E94AD028B83B5
S11305C0F80181810E94AD028A83F80180810E9432
S11305D0AD0289830AC0F80182818F778B83818180
S11305E08F778A8380818F778983F8018481882338
S11305F049F0823021F48B8180648B8303C08B812A
S113060080668B8303E09E012F5F3F4F40E060EDE7
S11306108DE890E00E94B1010F900F900F900F9021
S11306200F90DF91CF911F910F9108950F931F9316
S1130630CF93DF9300D000D01F92CDB7DEB78C01EB
S1130640FC018481823079F481810E94AD028A8325
S1130650F80183810E94AD028C83F80182810E949B
S1130660AD028B8309C0F80181818F738A838381F2
S11306708C8382818F738B83F8018081898304E06A
S11306809E012F5F3F4F43E060ED8DE890E00E94B4
S1130690B1010F900F900F900F900F90DF91CF91B9
S11306A01F910F910895A1E21A2EAA1BBB1BFD01F5
S11306B00DC0AA1FBB1FEE1FFF1FA217B307E4073D
S11306C0F50720F0A21BB30BE40BF50B661F771F95
S11306D0881F991F1A9469F7609570958095909575
S11306E09B01AC01BD01CF01089597FB10F816944E
S11306F000080F93083098F00850232F342F452F0B
S1130700562F672F782F892F902DF4CF0594979526
S113071087957795679557954795379527950A95C2
S1130720AAF70F9108950024A7FD00942A0F301D05
S1130730401D501D601D701D801D901D0895F8946E
S1050740FFCFE5
S1130742390001390002390004390008390010392E
S113075200203300103300203300403300800100B6
S11307620B1402000000020000140A02000100003F
S109077200D002000000AB
S9030000FC
