:100000000C942A000C9447000C9447000C94470071
:100010000C9447000C9447000C9447000C94470044
:100020000C9447000C9447000C9447000C94470034
:100030000C9447000C9447000C9447000C94470024
:100040000C9447000C9447000C9447000C94470014
:100050000C94470011241FBECFE5D8E0DEBFCDBF12
:1000600010E0A0E6B0E0E6E9F6E002C005900D92EF
:10007000A837B107D9F720E0A8E7B0E001C01D928A
:10008000AD37B207E1F70E94C7010C9449030C9405
:100090000000FF920F931F93CF93DF9300D01F9226
:1000A000CDB7DEB7F42E498321E02A831B8208E70F
:1000B00010E0F80191838083738362834483BE01DF
:1000C0006F5F7F4F0E94E3008FE08983BE016F5F07
:1000D0007F4FF801828193810E94E30040E06F2D01
:1000E000F801808191810E9404010F900F900F9080
:1000F000DF91CF911F910F91FF900895FF920F9381
:100100001F93CF93DF93F62E9DEC899F912D1124A1
:10011000092F069506950695000F202F220F220F16
:10012000020F801B082F892F86958695869579F07A
:100130001DEC819F112D1124169516951695110F02
:10014000912F990F990F190F811B182F01C010E0E3
:10015000C8E7D0E040E06C81888199810E94040169
:100160002FE0412F6FE08A819B810E94110141E0C5
:100170006F2D888199810E9404018FE99FE001978A
:10018000F1F700C0000040E06C81888199810E94F5
:1001900004012FE0402F6FE08A819B810E941101B2
:1001A0006F2D660F41E0888199810E9404018FE3E1
:1001B0009CE90197F1F700C00000DF91CF911F91FA
:1001C0000F91FF900895DC01FB018181813099F44A
:1001D000808111969C911197892B11968C93119780
:1001E0008281813081F4808112969C911297892BB3
:1001F00012968C9308959081909511968C911197F9
:10020000982311969C930895442329F0FC012281A0
:10021000622B628308956095FC01228162236283D0
:100220000895FC016095928169232423262B228363
:1002300008958F929F92AF92BF92CF92DF92EF92EA
:10024000FF920F93CF93DF93EC01288139814A818C
:100250005B8160E074E284EF90E00E94FD0249015E
:100260005A01392D4A2D5B2D60E070E080E090E06E
:10027000A0EF0E943D0301E00E94210320B98C8180
:1002800082B916BE11B88D81813029F4789486B771
:10029000816086BF03C086B78E7F86BFDF91CF9116
:1002A0000F91FF90EF90DF90CF90BF90AF909F9015
:1002B0008F9008950F93FC0137832683008784EA8B
:1002C00086BF06B607FEFDCF63B984E886BF06B6D3
:1002D00007FEFDCF43B984E886BF06B607FEFDCF13
:1002E0000DC0A681B781CD010196978386838C913D
:1002F00083B984E886BF06B607FEFDCF80859FEFF1
:10030000980F90878111EDCF84E986BF0F910895F2
:100310000F93FC0137832683008784EA86BF06B6E5
:1003200007FEFDCF63B984E886BF06B607FEFDCFA2
:1003300043B984E886BF06B607FEFDCF84EA86BFD0
:1003400006B607FEFDCF616063B984E886BF06B6D6
:1003500007FEFDCF0DC084EC86BF06B607FEFDCFBD
:10036000A681B781CD0101969783868383B18C9353
:1003700080859FEF980F90878111EDCF84E886BF2D
:1003800006B607FEFDCF84E986BF0F9108950E944F
:10039000EF018AE690E00E94780280E690E00E94F9
:1003A000C0024FE366E370E080E390E00E94490002
:1003B00061E087E00E947E0085E690E00E940102F5
:1003C000C5E6D0E061E08A810E947E0064E0898118
:1003D0000E947E0060E188810E947E00EDCF8FE662
:1003E00090E00E9419010895382F3F70982F929540
:1003F0009F70990F292F220F220F892F820F830FB1
:100400000895EF92FF920F931F93CF93DF9300D045
:1004100000D01F92CDB7DEB77C0103E09E012F5FB5
:100420003F4F40E060ED8FE690E00E9488018B81B5
:10043000982F907486FD05C0F70182818F778283A3
:100440000BC0911104C091E0F701948303C092E0C6
:10045000F70194838F718B838A81082F0F778981AD
:10046000182F1F77F7018381823081F48B810E94DE
:10047000F401F7018283802F0E94F401F701818348
:10048000812F0E94F401F701808305C08B81F70161
:100490008283018310830F900F900F900F900F9025
:1004A000DF91CF911F910F91FF90EF9008958436C7
:1004B000D8F48823D9F09DEC899F912D1124492FE0
:1004C000469546954695440F242F220F220F420F42
:1004D000841B482F96959695969580E1989F90015C
:1004E0001124842F822B089589E9089580E00895CE
:1004F0000F931F93CF93DF9300D000D01F92CDB7FF
:10050000DEB78C01FC018381823079F482810E9404
:1005100057028B83F80181810E9457028A83F80178
:1005200080810E94570289830AC0F80182818F77F7
:100530008B8381818F778A8380818F778983F8018C
:100540008481882349F0823021F48B8180648B83FD
:1005500003C08B8180668B8303E09E012F5F3F4F3A
:1005600040E060ED8FE690E00E945A010F900F90FE
:100570000F900F900F90DF91CF911F910F910895E1
:100580000F931F93CF93DF9300D000D01F92CDB76E
:10059000DEB78C01FC018481823079F481810E9474
:1005A00057028A83F80183810E9457028C83F801E5
:1005B00082810E9457028B8309C0F80181818F7369
:1005C0008A8383818C8382818F738B83F8018081FE
:1005D000898304E09E012F5F3F4F43E060ED8FE68B
:1005E00090E00E945A010F900F900F900F900F9083
:1005F000DF91CF911F910F910895A1E21A2EAA1BAE
:10060000BB1BFD010DC0AA1FBB1FEE1FFF1FA217C2
:10061000B307E407F50720F0A21BB30BE40BF50BBF
:10062000661F771F881F991F1A9469F76095709548
:10063000809590959B01AC01BD01CF01089597FB7A
:1006400010F8169400080F93083098F00850232FE4
:10065000342F452F562F672F782F892F902DF4CFC9
:10066000059497958795779567955795479537950D
:1006700027950A95AAF70F9108950024A7FD0094E5
:100680002A0F301D401D501D601D701D801D901DC6
:060690000895F894FFCF6D
:1006960001000B1402000000020000140A0200010F
:0806A600000000D0020000007A
:00000001FF
